{
  "contractName": "SubmittedPapersIndex",
  "abi": [
    {
      "constant": true,
      "inputs": [
        {
          "name": "",
          "type": "uint256"
        }
      ],
      "name": "store",
      "outputs": [
        {
          "name": "",
          "type": "bytes32"
        }
      ],
      "payable": false,
      "stateMutability": "view",
      "type": "function"
    },
    {
      "constant": false,
      "inputs": [
        {
          "name": "_hash",
          "type": "bytes32"
        }
      ],
      "name": "push",
      "outputs": [],
      "payable": false,
      "stateMutability": "nonpayable",
      "type": "function"
    },
    {
      "constant": true,
      "inputs": [],
      "name": "getAll",
      "outputs": [
        {
          "name": "hashes",
          "type": "bytes32[]"
        }
      ],
      "payable": false,
      "stateMutability": "view",
      "type": "function"
    }
  ],
  "bytecode": "0x6060604052341561000f57600080fd5b61028c8061001e6000396000f300606060405260043610610057576000357c0100000000000000000000000000000000000000000000000000000000900463ffffffff16806353ed51431461005c5780636057361d146100c6578063b298e36b14610105575b600080fd5b341561006757600080fd5b61006f61012c565b6040518080602001828103825283818151815260200191508051906020019060200280838360005b838110156100b2578082015181840152602081019050610097565b505050509050019250505060405180910390f35b34156100d157600080fd5b6100e7600480803590602001909190505061018e565b60405180826000191660001916815260200191505060405180910390f35b341561011057600080fd5b61012a6004808035600019169060200190919050506101b2565b005b6101346101fb565b600080548060200260200160405190810160405280929190818152602001828054801561018457602002820191906000526020600020905b8154600019168152602001906001019080831161016c575b5050505050905090565b60008181548110151561019d57fe5b90600052602060002090016000915090505481565b60006001028160001916141515156101c957600080fd5b600080548060010182816101dd919061020f565b91600052602060002090016000839091909150906000191690555050565b602060405190810160405280600081525090565b81548183558181151161023657818360005260206000209182019101610235919061023b565b5b505050565b61025d91905b80821115610259576000816000905550600101610241565b5090565b905600a165627a7a72305820dbbe9e1681abf9ae3cbfb538d2334a276c41e2043a78fc4e2f6d5ad2417e2e5c0029",
  "source": "pragma solidity ^0.4.7;\n\n\ncontract SubmittedPapersIndex {\n    bytes32[] public store;\n\n    function push(bytes32 _hash) public {\n        require(_hash != 0x00);\n        store.push(_hash);\n    }\n\n    function getAll() public constant returns (bytes32[] hashes) {\n        return store;\n    }\n}\n",
  "sourcePath": "/home/roo2/projects/aletheia/aletheia-app/contracts/SubmittedPapersIndex.sol",
  "compiler": {
    "name": "solc",
    "version": "0.4.19+commit.c4cbbb05.Emscripten.clang"
  },
  "schemaVersion": "1.0.1",
  "updatedAt": "2018-02-04T04:45:23.293Z"
}